S020000045565F436861726765725F5241364D335F4E545F544553542E7372656306
S315000000001016FE1FA56E0000E56C0000B36E000022
S31500000010B36E0000B36E0000B36E0000B36E000056
S31500000020000000000000000000000000B36E0000A9
S31500000030B36E000000000000B36E0000B36E000057
S31500000040FF640000F9650000A3660000F965000082
S31500000050A3660000FF640000F9650000A3660000C7
S31500000060F9650000A3660000A5500000CD4F000012
S3150000007071510000C9510000A5500000CD4F00008D
S3150000008071510000C9510000A5500000CD4F00007D
S3150000009071510000C9510000A5500000CD4F00006D
S315000000A071510000C9510000675B000000000000AC
S315000000B0000000000000000000000000000000003A
S315000000C0000000000000000000000000000000002A
S315000000D0000000000000000000000000000000001A
S315000000E0000000000000000000000000000000000A
S31500000400FFFFFFFFFFFDFFFFFCFFFFFFFFFFFFFFFB
S31500000410FCFFFFFFFFFFFFFFFCFFFF00FFFFFF00EA
S31500000420FCFF0F20FFFF0F20FCFF7F40FFFF7F40F8
S31500000430FCFF0D40FFFF0D40FFFFFFFFFFFFFFFF2B
S31500000440FFFFFFFFFFFFFFFFFFFFFFFFFFFFFFFFB6
S31500000450FFFFFFFFFFFFFFFFFFFFFFFFFFFFFFFFA6
S31500000460FFFFFFFFFFFFFFFFFFFFFFFFFFFFFFFF96
S31500000470FFFFFFFFFFFFFFFFFFFFFFFFFFFFFFFF86
S31500000480FFFFFFFFFFFFFFFFFFFFFFFFFFFFFFFF76
S31500000490FFFFFFFFFFFFFFFFFFFFFFFFFFFFFFFF66
S315000004A0FFFFFFFFFFFFFFFFFFFFFFFFFFFFFFFF56
S315000004B0FFFFFFFFFFFFFFFFFFFFFFFFFFFFFFFF46
S315000004C0FFFFFFFFFFFFFFFFFFFFFFFFFFFFFFFF36
S315000004D0FFFFFFFFFFFFFFFFFFFFFFFFFFFFFFFF26
S315000004E0FFFFFFFFFFFFFFFFFFFFFFFFFFFFFFFF16
S315000004F0FFFFFFFFFFFFFFFFFFFFFFFFFFFFFFFF06
S3150000050010B5054C237833B9044B13B10448AFF347
S3150000051000800123237010BD0802FE1F00000000AA
S31500000520F87D000008B5034B1BB103490348AFF340
S31500000530008008BD000000000C02FE1FF87D0000D0
S3150000054080B400AF284BDA89284B1A80264BDA8B09
S31500000550264B5A80244BDA8D244B9A80224BDA8F15
S31500000560224BDA80204BB3F84E20204B1A811E4BCB
S31500000570B3F85E201D4B5A811B4BB3F86E201B4B04
S315000005809A81194BB3F87E20184BDA81164BB3F8D3
S315000005908E20164B1A82154B5A8A134BA3F89E20AF
S315000005A0124B9A8A104BA3F8AE20104BDA8A0E4BE8
S315000005B0A3F8BE200E4B1B690E4A13600C4B5B6AF8
S315000005C00C4A53600A4B9B6B0A4A9360084BDB6CE0
S315000005D0084AD360064B1B6E064A136100BFBD4630
S315000005E05DF8047B704700BF0000FE1F2402FE1F5B
S315000005F0C000FE1F3C02FE1F80B584B002AF092377
S31500000600FB7120E03A4B1868FB793A4A1B01134408
S315000006100C331A88FB7937491B010B440E331B88B0
S31500000620012100F0B3FF0346BB71BB79002B07D055
S31500000630012240F60331304804F09AFEBB797B7103
S31500000640FB790133FB71FB790B2BDBD90023FB71A3
S315000006501CE0274B1868FB79264A1B0113440C3310
S315000006601A88FB791B01083322490B440633009391
S315000006700123012100F0AEFF0346BB71BB79002BBD
S3150000068001D0BB797B71FB790133FB71FB79082BB8
S31500000690DFD90023FB7122E0154B1868FA79174958
S315000006A013469B0013449B000B440C331988FA79BC
S315000006B013469B0013449B001033104A13440093C7
S315000006C002230A46022100F085FF0346BB71BB796F
S315000006D0002B01D0BB797B71FB790133FB71FB7970
S315000006E0042BD9D900BF00BF0837BD4680BD00BF67
S315000006F05002FE1F0000FE1F080FFE1FC000FE1F57
S3150000070080B485B000AF78600B467B80FF23FB7317
S31500000710FF23BB7310E07B685A1C7A601A78BB7B98
S3150000072053407B737B7B0E4AD25CFB7B5340BB738F
S315000007307B7B0C4AD35CFB737B885A1E7A80002B2A
S31500000740E9D1FB7B1B021AB2BB7B1BB213431BB264
S315000007509BB218461437BD465DF8047B704700BF50
S31500000760B8730000B874000080B58CB004AFF860B0
S315000007707A601A460B46FB721346BB720023FB7760
S315000007800023BB610023BB82FB68002B00F0EF80D7
S315000007907B68002B00F0EB8001F0FAFA774B93F9B7
S315000007A00030002B6FD10023FB7566E0FB7D744A99
S315000007B04FF48A7101FB03F31344FF221A70FB7D89
S315000007C06F4A4FF48A7101FB03F3134403F20113DA
S315000007D000221A70FB7D6A4A4FF48A7101FB03F30B
S315000007E0134403F5817300221A80FB7D644A4FF49B
S315000007F08A7101FB03F3134403F5827300221A7016
S31500000800FB7D5F4A4FF48A7101FB03F3134403F542
S31500000810837300221A80FB7D594A4FF48A7101FBCB
S3150000082003F3134403F5847300221A60FB7D544AD4
S315000008304FF48A7101FB03F3134403F58673002218
S315000008401A60FB7D4E4A4FF48A7101FB03F3134491
S3150000085003F5887300221A60FB7D4FF48A7202FB4F
S3150000086003F3474A134401334FF4807200211846BC
S3150000087006F066FDFB7D0133FB75FB7D012B95D9EB
S315000008803E4B01221A700023FB7518E0FB7D3C4AA3
S315000008904FF48A7101FB03F313441B78FF2B0BD132
S315000008A0FB7D4FF48A7202FB03F3354A1344BB61A6
S315000008B0BB69FA7D1A7005E0FB7D0133FB75FB7D94
S315000008C0012BE3D9BB69002B4CD07B68B3F5964F5F
S315000008D002D90223BB8205E07B685B00294AB2FB92
S315000008E0F3F3BB82BB6903F58870F97AFB68029360
S315000008F097F828300193BB7A009308237A6801F0B1
S315000009006FFA0346FB74FB7C002B02D0FB7CFB7763
S3150000091021E0BB6903F58670B98AFB681A4A01F0C3
S31500000920EFFB0346FB74FB7C002B02D0FB7CFB77C2
S3150000093011E0BB699A1CFB681A61FB68BA699A6088
S31500000940FB68124A5A61FB68114A9A61FB68114AB0
S31500000950DA610023FB77FB7F002B05D0B86900F036
S315000009608DF901E00423FB7701F024FA01E002236C
S31500000970FB77FB7F18462037BD4680BD5402FE1F1D
S315000009805802FE1FC82C010035100000990900000E
S31500000990090B0000490C000080B586B000AF7860F6
S315000009A00B46FB7013463B800223FB757B683B615D
S315000009B0386900F07DFE0346002B00F09B803B6902
S315000009C09B68FB60FB68002B00F09480FB681B783B
S315000009D0012B00F28F80FB681B781A464FF48A734E
S315000009E002FB03F3464A1344FA689A4240F08280B7
S315000009F0FB78002B05D0FB78002B7BD0FB78F72B00
S31500000A0078D83B88FD2B75D801F0C2F9FB6893F8BE
S31500000A100431DBB2002B01D001F0A8F901F0CAF9CC
S31500000A20FB68FA785A70FB680122A3F80621FB6876
S31500000A30B3F806319AB23B8813449AB2FB68A3F81E
S31500000A400621FB685A1CFB68B3F806319BB21946AF
S31500000A501046FFF755FE03467B81FB68B3F8063167
S31500000A609BB219467B89DAB2FB680B445A70FB6865
S31500000A70B3F806319BB201339AB2FB68A3F806219C
S31500000A807B891B0A9AB2FB68B3F806319BB21946FA
S31500000A90D2B2FB680B445A70FB68B3F806319BB2BE
S31500000AA001339AB2FB68A3F8062101F071F9FB68DD
S31500000AB0012283F80421FB685A1CFB68C3F808214D
S31500000AC0FB68D3F810310F49184601F03DFA03468A
S31500000AD0FB75FB7D002B0BD0FB68002283F80421FD
S31500000AE0FB680022A3F80621FB680022C3F8082150
S31500000AF001F060F9FB7D18461837BD4680BD00BF82
S31500000B005802FE1FD10E000080B588B000AFF86015
S31500000B100B467A60FB720223FB77FB68BB61B86900
S31500000B2000F0C6FD0346002B00F08680BB699B687B
S31500000B307B617B69002B7FD07B691B78012B7BD87F
S31500000B407B691B781A464FF48A7302FB03F33D4A0E
S31500000B5013447A699A426FD1FB7A002B6CD0FB7AE8
S31500000B60F72B69D87B68002B25D07B69B3F8023157
S31500000B709BB2032B1DD97B695B78DBB2FA7A9A426A
S31500000B8017D17B695A1C7B69B3F802319BB21946AF
S31500000B901046FFF7B5FD0346002B0AD17B69B3F873
S31500000BA002319BB2033B9AB27B681A800023FB7723
S31500000BB001E00523FB7701F0EBF87B69D3F81031F0
S31500000BC00021184601F0C0F90346FB74FB7C002B9C
S31500000BD001D0FB7CFB777B69D3F8103100211846E6
S31500000BE001F008FA0346FB74FB7C002B01D0FB7C6A
S31500000BF0FB777B69D3F80C31184601F06FFB03468F
S31500000C00FB74FB7C002B01D0FB7CFB777B6900220D
S31500000C1083F804217B690022A3F806217B69002260
S31500000C20C3F808217B69002283F801217B69002231
S31500000C30A3F8022101F0BEF8FB7F18462037BD4617
S31500000C4080BD00BF5802FE1F80B584B000AF78603B
S31500000C500223FB737B68BB60B86800F029FD03467E
S31500000C60002B06D0BB689B68184600F007F80346C1
S31500000C70FB73FB7B18461037BD4680BD80B584B03C
S31500000C8000AF78600223FB7301F082F87B68002BCB
S31500000C9000F089807B681B78012B00F284807B68DA
S31500000CA01B781A464FF48A7302FB03F3414A134436
S31500000CB07A689A4277D10023FB737B68D3F81031A8
S31500000CC0002B40D07B68D3F81031184601F00EF99E
S31500000CD00346002B02D00323FB7364E07B68D3F842
S31500000CE00C31002B05D07B68D3F80C31184601F087
S31500000CF0A7FA7B68FF221A707B68002283F801211D
S31500000D007B680022A3F802217B68002283F8042175
S31500000D107B680022A3F806217B680022C3F808211D
S31500000D207B680022C3F80C217B680022C3F81021DF
S31500000D307B6801334FF480720021184606F000FBF1
S31500000D400023FB732FE07B68D3F80C31002B01D016
S31500000D5001F00CF87B68FF221A707B68002283F88A
S31500000D6001217B680022A3F802217B68002283F818
S31500000D7004217B680022A3F806217B680022C3F8C1
S31500000D8008217B680022C3F80C217B680022C3F887
S31500000D9010217B6801334FF480720021184606F05B
S31500000DA0CFFA0023FB7301F005F8FB7B18461037DA
S31500000DB0BD4680BD5802FE1F80B586B000AF786084
S31500000DC00B46FB700623FB757B683B6100F0E0FF7A
S31500000DD03B699B68FB60FB6893F80431DBB2002B30
S31500000DE001D000F0C3FFFB6893F80131DBB2002BA2
S31500000DF002D0012B1BD038E0FB680022A3F80221A9
S31500000E00FB68B3F802319BB21A46FB681344FA78C2
S31500000E105A70FB68B3F802319BB201339AB2FB6891
S31500000E20A3F80221FB68012283F8012122E0FB6876
S31500000E30B3F802319BB2FF2B12D8FB68B3F802312C
S31500000E409BB21A46FB681344FA785A70FB68B3F8EB
S31500000E5002319BB201339AB2FB68A3F8022109E082
S31500000E60FB68022283F8012104E0FB68022283F872
S31500000E70012100BFFB68D3F80C31184601F00AFACD
S31500000E800346002B1ED0FB68D3F81031002118460C
S31500000E9001F0B0F80346FB75FB7D002B01D000F096
S31500000EA065FF3B695B680421184600F0E9FE0346CE
S31500000EB0FB75FB7D002B01D000F058FFFB6802227A
S31500000EC083F8012100F076FF00BF1837BD4680BDCC
S31500000ED080B586B000AF786039600023FB750023CB
S31500000EE0BB7500237B757B683B6100F051FF3B6956
S31500000EF09B68FB60FB6893F80131DBB2002B01D0E5
S31500000F0000F034FFFB6893F80431DBB2012B01D00B
S31500000F1000F02CFFFB68D3F80831002B01D100F05C
S31500000F2025FFFB6893F80431DBB2012B29D1FB685E
S31500000F30B3F806319BB2002B18D0FB68D3F8083102
S31500000F401A783B681A70FB68D3F808315A1CFB689C
S31500000F50C3F80821FB68B3F806319BB2013B9AB28D
S31500000F60FB68A3F806210123FB7518E0FB685B7894
S31500000F70DBB2002B02D101237B7510E00123BB7588
S31500000F800DE03B695B680621184600F079FE0346D2
S31500000F90FB72FB7A002B01D000F0E8FE00BF97F948
S31500000FA01730002B20D1FB68002283F80421FB6850
S31500000FB00022A3F80621FB680022C3F8082197F94E
S31500000FC01530002B10D0FB68022283F80421FB6841
S31500000FD0D3F80C31184601F05DF90346FB72FB7A33
S31500000FE0002B01D000F0C2FE97F91630002B16D068
S31500000FF0FB68D3F810310E49184600F0FBFF034694
S31500001000002B0CD03B695B680621184600F038FEC1
S315000010100346FB72FB7A002B01D000F0A7FE00F01E
S31500001020C9FE97F9173018461837BD4680BD00BF70
S31500001030B90D000080B586B000AF78600123FB755E
S315000010407B683B6100F0A4FE3B699B68FB60FB6824
S3150000105093F80431DBB2002B07D0FB6893F8043118
S31500001060DBB2022B01D000F081FEFB6893F804315D
S31500001070DBB2022B26D1FB68002283F80421FB6831
S315000010800022A3F80621FB680022C3F808213B6969
S315000010905B680521184600F0F3FD0346FB72FB7AF8
S315000010A0002B01D000F062FEFB68D3F80C31184625
S315000010B001F014F90346FB72FB7A002B44D000F0D2
S315000010C055FE41E0FB6893F80131DBB2012B0DD1EF
S315000010D03B695B680321184600F0D2FD0346FB72AC
S315000010E0FB7A002B10D000F041FE0DE03B695B68F7
S315000010F00421184600F0C4FD0346FB72FB7A002B60
S3150000110003D000F033FE00E000BFFB68002283F846
S315000011100121FB68D3F810310021184600F06AFF60
S315000011200346FB72FB7A002B01D000F01FFEFB6822
S31500001130D3F80C31184601F0D1F80346FB72FB7A5E
S31500001140002B01D000F012FE00F034FE97F91730A4
S3150000115018461837BD4680BD80B586B000AFF8602A
S31500001160084611461A460346FB720B463B81134658
S31500001170FB80FB687B61786900F09AFA0346002BD6
S3150000118000F0D4803B6A002B00F0D0807B6A002BF5
S3150000119000F0CC803B6A1B78042B00F2BF8001A2D2
S315000011A052F823F0B91100005F1200005F12000030
S315000011B06D120000151300007B690022DA817B693D
S315000011C01B697A69D289134406221A707B69DB8906
S315000011D001339AB27B69DA813B891B0A99B27B6932
S315000011E01B697A69D2891344CAB21A707B69DB8992
S315000011F001339AB27B69DA817B691B697A69D28984
S3150000120013443A89D2B21A707B69DB8901339AB2E8
S315000012107B69DA81FB881B0A99B27B691B697A694B
S31500001220D2891344CAB21A707B69DB8901339AB238
S315000012307B69DA817B691B697A69D2891344FA88EA
S31500001240D2B21A707B69DB8901339AB27B69DA8183
S315000012507B6A07221A703B6A01221A7065E0F97AE6
S315000012607B6A3A6A786900F09FFB5EE03B6A05227A
S315000012701A707B69DB89052B32D17B691B691B7868
S31500001280062B2DD17B691B6901331B789BB21B0290
S315000012907B827B691B6902331B789AB27B8A134374
S315000012A07B827B691B6903331B789BB21B023B82E3
S315000012B07B691B6904331B789AB23B8A13433B82D2
S315000012C07A8A3B899A4207D13A8AFB889A4203D1A5
S315000012D07B6A00221A701CE07B6A05221A7018E0ED
S315000012E07B69DB89022B10D17B691B691B78862BF6
S315000012F00BD17B691B6901331B78184600F090F906
S3150000130003461A467B6A1A7003E07B6A05221A7046
S315000013100BE00AE03B6A05221A7006E03B6A0522EA
S315000013201A707B6A06221A700DE00CE03B6A002BED
S3150000133002D03B6A05221A707B6A002B03D07B6AB7
S3150000134002221A70FFE700BF1837BD4680BD00BFF6
S3150000135080B586B000AF7860084611461A46034647
S31500001360FB700B463B801346BB707B68FB60F868DE
S3150000137000F09EF90346002B00F0F6807B6A002BF6
S3150000138000F0F280BB6A002B00F0EE803B6A002B77
S3150000139000F0EA807B6A1B78042B00F2DD8001A254
S315000013A052F823F0B91300007D1400007D140000EC
S315000013B08B140000511500003A88BB781344B3F52E
S315000013C0803F54D2BB78002B51D0BB787D2B4ED8B2
S315000013D0FB680022DA81FB681B69FA68D28913442C
S315000013E003221A70FB68DB8901339AB2FB68DA8143
S315000013F03B881B0A99B2FB681B69FA68D2891344B9
S31500001400CAB21A70FB68DB8901339AB2FB68DA81CB
S31500001410FB681B69FA68D28913443A88D2B21A70FB
S31500001420FB68DB8901339AB2FB68DA81FB681B69CA
S31500001430FA68D289134400221A70FB68DB890133EB
S315000014409AB2FB68DA81FB681B69FA68D289134491
S31500001450BA781A70FB68DB8901339AB2FB68DA81C5
S31500001460BB6A07221A707B6A01221A707BE0BB6A8C
S3150000147002221A707B6A05221A7074E0F978BB6A38
S315000014807A6AF86800F090FA6DE07B6A05221A70B5
S31500001490BB789BB201339BB25B009AB2FB68DB89D7
S315000014A09A423BD1FB681B691B78032B36D1BB786C
S315000014B05B00FA6812690132127893422ED1FB68FA
S315000014C01B6902333B610023FB751FE03B695A1C15
S315000014D03A611B789AB2FB7D5B00396A0B441202B3
S315000014E092B21A803B695A1C3A611B7899B2FB7D0D
S315000014F05B003A6A13441A88FB7D5B00386A034432
S315000015000A4392B21A80FB7D0133FB75FA7DBB78E4
S315000015109A42DBD3BB6A00221A7018E0FB68DB89AB
S31500001520022B10D1FB681B691B78832B0BD1FB6840
S315000015301B6901331B78184600F072F803461A46F9
S31500001540BB6A1A7003E0BB6A05221A700BE00AE058
S315000015507B6A05221A7006E07B6A05221A70BB6A4E
S3150000156006221A700DE00CE07B6A002B02D07B6A23
S3150000157005221A70BB6A002B03D0BB6A02221A70BE
S31500001580FFE700BF1837BD4680BD00BF80B588B0F5
S3150000159002AFF860084611461A460346FB720B4630
S315000015A03B811346FB800023BB75F8883A89F97A9C
S315000015B007F11703019307F1160300930346F86832
S315000015C0FFF7CAFDBB7D052BEFD1FB7D184618370B
S315000015D0BD4680BD80B588B004AF78600846114628
S315000015E01A460346FB700B463B801346BB7000232E
S315000015F0BB73B8783A88F97807F10F03029307F1BD
S315000016000E030193BB69009303467868FFF7A0FEBB
S31500001610BB7B052BEDD1FB7B18461037BD4680BD45
S3150000162080B485B000AF0346FB710523FB73FB79DD
S31500001630013B0A2B33D801A252F823F069160000A9
S315000016406F160000751600007B160000811600005C
S31500001650871600009F1600008D1600009F160000DA
S3150000166093160000991600000A23FB7318E00B235B
S31500001670FB7315E00C23FB7312E00D23FB730FE0E5
S315000016800E23FB730CE00F23FB7309E01023FB739F
S3150000169006E01123FB7303E01223FB7300E000BF97
S315000016A0FB7B18461437BD465DF8047B704700BFC8
S315000016B080B483B000AF78607B68002B0DD07B6868
S315000016C01B7B012B09D87B681B7B5B01074A1344F4
S315000016D07A689A4201D1012300E000235BB21846E2
S315000016E00C37BD465DF8047B704700BF8404FE1FBF
S315000016F080B584B000AF0423FB730023BB6000F009
S3150000170047FB4C4B93F90030002B49D10023FB716A
S3150000171040E0FB79484A5B01134400221A60FB79DA
S31500001720454A5B011344043300221A60FB79424A9E
S315000017305B011344083300221A60FB793E4A5B01C1
S3150000174013440C33FF221A70FB793B4A5B011344A6
S31500001750103300221A60FB79374A5B0113440E33BB
S3150000176000221A80FB79344A5B01134414330022A9
S315000017701A60FB79304A5B011344183300221A6061
S31500001780FB792D4A5B0113441C3300221A60FB7956
S315000017900133FB71FB79012BBBD9264B01221A7051
S315000017A00023FB7131E0FB79234A5B0113440C33C0
S315000017B01B78FF2B26D1FB795B011F4A1344BB60C4
S315000017C0BB68FA791A73B868BB681C4A4FF4FA7199
S315000017D000F096FC0346BB71BB79002B02D0BB79A7
S315000017E0FB7315E0BB680433184600F0F3F90346B3
S315000017F0BB71BB79002B02D0BB79FB7308E00023D9
S31500001800FB7305E0FB790133FB71FB79012BCAD928
S31500001810FB7B002B02D0B86800F012F800F0CAFA81
S31500001820FB7B002B01D1BB6800E000231846103774
S31500001830BD4680BD8004FE1F8404FE1F59190000AA
S3150000184080B584B000AF78600223FB7300F0A0FA85
S315000018507B68002B77D07B681B7B012B73D87B685A
S315000018601B7B5B013B4A13447A689A426BD17B68C7
S31500001870DB69002B38D07B68DB69786898470346BC
S31500001880FB73FB7B002B5ED17B685B68002B04D06F
S315000018907B685B68184600F047FA7B681B68002B7C
S315000018A004D07B681B68184600F0CAFC7B680022DF
S315000018B01A607B6800225A607B6800229A607B6807
S315000018C0FF221A737B6800221A617B680022DA8184
S315000018D07B6800225A617B6800229A617B6800223D
S315000018E0DA610023FB732EE07B685B68002B04D073
S315000018F07B685B68184600F017FA7B681B68002B4C
S3150000190004D07B681B68184600F09AFC7B680022AE
S315000019101A607B6800225A607B6800229A607B68A6
S31500001920FF221A737B6800221A617B680022DA8123
S315000019307B6800225A617B6800229A617B680022DC
S31500001940DA610023FB7300F035FAFB7B184610378B
S31500001950BD4680BD8404FE1F80B586B000AF7860AA
S315000019600023FB757B683B610023FB730123FB733C
S3150000197097F90F30002B11D03B695B68022118469E
S3150000198000F07EF90346BB73BB7B002B01D101231C
S31500001990FB75BB7B002B01D000F0E8F997F91730F7
S315000019A018461837BD4680BD80B586B000AFF860D2
S315000019B07A603B600B46FB727B681B78012B02D07A
S315000019C0022B28D090E0FB681B68184600F062FCEA
S315000019D003461A463B681A703B681B78002B03D0F7
S315000019E07B6804221A7086E0FB685B69FA68D28914
S315000019F0F97AF868984703461A463B681A703B68B6
S31500001A001B78002B03D07B6804221A7073E07B6876
S31500001A1002221A706FE0FB685B6807F11702114635
S31500001A20184600F053F90346002B5BD0FB681B6891
S31500001A30184600F053FCFB7D023B042B4BD801A259
S31500001A4052F823F0591A0000731A0000A11A000078
S31500001A50BB1A0000C91A0000FB689B69F97A0022CC
S31500001A60F86898477B6805221A703B6808221A7046
S31500001A7039E0FB689B69FA680E32F97AF86898478C
S31500001A8003461A463B681A703B681B78002B03D046
S31500001A907B6804221A7026E07B6803221A7022E013
S31500001AA0FB689B69F97A0022F86898477B680422EC
S31500001AB01A703B6805221A7015E07B6805221A70B9
S31500001AC03B6800221A700EE07B6804221A703B689D
S31500001AD005221A7007E07B6804221A703B6806220A
S31500001AE01A7000E000BF06E07B6804221A703B68AB
S31500001AF006221A7000BF00BF1837BD4680BD00BF62
S31500001B0080B588B002AFF8607B600B46FB72134667
S31500001B10BB7297F82030022B01D1022300E001238B
S31500001B20FB75BA7AF97AFB7D019397F8203000931A
S31500001B307B68F86800F007F80346BB75BB7D18465E
S31500001B401837BD4680BD80B58AB002AFF8607B60AD
S31500001B500B46FB721346BB720223FB77FB68002B16
S31500001B6033D0FFF7C5FDB861BB69002B02D1042352
S31500001B70FB7713E0FB7A002B0DD197F82820B97A72
S31500001B8097F82C30009313467A68B869FEF7ECFD97
S31500001B900346FB7702E00223FB7700BFFB7F002BA7
S31500001BA010D0BB69002B09D0B869FFF749FE034680
S31500001BB0FB75FB7D002B01D0FB7DFB77FB680022CC
S31500001BC01A6002E0FB68BA691A60FB7F1846203784
S31500001BD0BD4680BD80B584B000AF78600223FB733C
S31500001BE07B68002B42D000F0D3F8234B93F90030EA
S31500001BF0002B16D10023BB730DE0BB7B1F4AFF21D0
S31500001C0002F81310BB7B1D4A5B00134400225A7076
S31500001C10BB7B0133BB73BB7B002BEED0164B012283
S31500001C201A700023BB731CE0BB7B144A12F81330F6
S31500001C30FF2B13D1BB7B1149BA7B01F81320BB7B69
S31500001C400E4A5B00134400225A70BB7B5B000B4AB2
S31500001C501A447B681A600023FB7305E0BB7B0133E3
S31500001C60BB73BB7B002BDFD000F0A4F8FB7B1846D0
S31500001C701037BD4680BD00BFC404FE1FC804FE1F4A
S31500001C8080B584B000AF78600B46FB700223FB730F
S31500001C907B68BB6000F07CF8BB68002B0CD0BB688F
S31500001CA01B785B00084A1344BA689A4204D1BB68A1
S31500001CB0FA785A700023FB7300F07CF8FB7B184619
S31500001CC01037BD4680BD00BFC804FE1F80B584B076
S31500001CD000AF786039600023FB737B68BB6000F05F
S31500001CE057F8BB68002B14D0BB681B785B000D4A05
S31500001CF01344BA689A420CD1BB685B78002B08D0B3
S31500001D000123FB73BB685A783B681A70BB680022D4
S31500001D105A7000F04FF897F90F3018461037BD4645
S31500001D2080BD00BFC804FE1F80B584B000AF7860D8
S31500001D307B68FB6000F02CF8FB68002B0DD0FB687D
S31500001D401B785B00084A1344FA689A4205D1FB687F
S31500001D50FF221A70FB6800225A7000F02BF800BFB1
S31500001D601037BD4680BD00BFC804FE1F80B582B0D7
S31500001D7000AF0023FB7100F00BF800BFFB795BB2EC
S31500001D80002BFBD000BF00BF0837BD4680BDFFFF5C
S31500001D9080B400AF72B600BF054B1B780133DAB2D0
S31500001DA0034B1A7000BFBD465DF8047B704700BF49
S31500001DB0CA04FE1F80B400AF084B1B78013BDAB2A1
S31500001DC0064B1A70054B1B78002B01D162B600BF7B
S31500001DD000BFBD465DF8047B704700BFCA04FE1F06
S31500001DE080B586B000AFF8607A601A460B46FB7283
S31500001DF01346BB720023FB75FFF7CAFF384B93F9F6
S31500001E000030002B23D10023BB751DE0BB7D354A76
S31500001E101B011344FF221A70BB7D324A1B01134477
S31500001E20043300221A60BB7D2E4A1B01134408337B
S31500001E3000221A60BB7D2B4A1B0113440C3300227F
S31500001E401A60BB7D0133BB75BB7D002BDED0FB6802
S31500001E50002B02D10223FB753BE0FB7A002B36D127
S31500001E60204B1B78FF2B32D1FB6800221A607B685F
S31500001E70B3F5967F28D37B68B3F5E13F24D8BB6AD8
S31500001E80002B21D097F82030184602F099FA02F07C
S31500001E9075FA07F1100341F288320121786802F0E1
S31500001EA03FFE07F1100319460F4802F012FE0D4BD4
S31500001EB000221A700B4ABB6AD360FB68094A1A6093
S31500001EC00023FB7500BF04E00223FB7501E0042339
S31500001ED0FB75FFF76FFFFB7D18461837BD4680BDC3
S31500001EE0DC04FE1FCC04FE1F300FFE1F80B584B03D
S31500001EF000AF78600223FB737B68BB60FFF748FF87
S31500001F00BB68002B16D0BB681B781B010D4A134417
S31500001F10BA689A420ED1BB685B68002B08D1BB68D1
S31500001F209B68002B04D102F005FB0023FB7301E044
S31500001F300723FB73FFF73EFFFB7B18461037BD46B2
S31500001F4080BD00BFCC04FE1F80B586B000AF7860B0
S31500001F5039600223FB757B683B61FFF719FF3B691C
S31500001F60002B3CD03B691B781B01204A13443A697D
S31500001F709A4234D10023FB753B68002B2AD03B697B
S31500001F805B68002B01D0FFF7F1FE3A683B695A60A7
S31500001F900123BB75154B5B68002B09D0134B5B689F
S31500001FA0124AD26807F10F01104698470346BB75DF
S31500001FB097F91630002B05D10C4B00225A6002F01F
S31500001FC029FA0CE007F10F0301221946084802F02E
S31500001FD032FD04E03B6900225A6002F01BFAFFF76B
S31500001FE0E9FEFB7D18461837BD4680BDCC04FE1FB2
S31500001FF0300FFE1F80B584B000AF786039600223D1
S31500002000FB737B68BB60FFF7C3FEBB68002B1DD06C
S31500002010BB681B781B01114A1344BA689A4215D152
S315000020200023FB733B68002B0BD0BB689B68002B1F
S3150000203001D0FFF79BFE3A68BB689A6002F04AFA45
S3150000204004E0BB6800229A6002F014FAFFF7B2FEC1
S31500002050FB7B18461037BD4680BD00BFCC04FE1F73
S3150000206080B584B000AF78607B681B79042B16D1ED
S315000020700023BB737B689B68BB731F4B1B78FF2BCE
S3150000208001D1FFF773FE1C4B9B68002B30D01A4B17
S315000020909B68194AD268B97B1046984728E07B6846
S315000020A01B79802B24D07B681B79022B20D101233E
S315000020B0FB73114B5B68002B09D00F4B5B680E4A14
S315000020C0D26807F10D01104698470346FB7397F94E
S315000020D00F30002B05D1084B00225A6002F09AF906
S315000020E006E007F10D0301221946044802F0A3FC9D
S315000020F000BF1037BD4680BDCC04FE1F300FFE1F4B
S3150000210080B586B000AFF8607A603B600B467B8195
S315000021100323FB75FFF73CFEFB68002B00F0828073
S315000021207B68002B7ED03B68002B7BD0424B93F91B
S315000021300030002B32D10023BB7525E0BB7D3F4A22
S315000021401B011344FF221A70BB7D3C4A1B0113443A
S31500002150023300221A80BB7D384A1B011344043324
S315000021604FF6FF721A80BB7D344A1B0113440833B5
S3150000217000221A60BB7D314A1B0113440C33002236
S315000021801A60BB7D0133BB75BB7D032BD6D902F02C
S3150000219063F802F083F8284B01221A700023BB75FE
S315000021A009E0BB7D254A1B0113441B78FF2B06D093
S315000021B0BB7D0133BB75BB7D032BF2D900E000BFAD
S315000021C0BB7D042B2BD0BB7D1C4A1B011344BA7D5F
S315000021D01A70BB7D194A1B01134402337A891A808F
S315000021E0BB7D164A1B01134404334FF6FF721A8057
S315000021F0BB7D124A1B01134408333A681A60BB7D43
S315000022000E4A1B0113440C337A681A60BB7D1B010E
S315000022100A4A1A44FB681A600023FB7504E004238B
S31500002220FB7501E00223FB75FFF7C4FDFB7D184635
S315000022301837BD4680BD00BF2005FE1FE004FE1F07
S3150000224080B485B000AF78607B68FB60FB68002BCC
S3150000225017D0FB681B781B010D4A1344FA689A4293
S315000022600FD1FB68FF221A70FB6800225A80FB68B8
S315000022704FF6FF729A80FB6800229A60FB68002284
S31500002280DA6000BF1437BD465DF8047B704700BFB7
S31500002290E004FE1F80B584B000AF78600223FB73B4
S315000022A07B68BB60FFF774FDBB68002B0DD0BB6875
S315000022B01B781B01084A1344BA689A4205D1BB68C9
S315000022C05A88BB689A800023FB73FFF773FDFB7B7C
S315000022D018461037BD4680BDE004FE1F80B584B0A9
S315000022E000AF78600223FB737B68BB60FFF750FD8D
S315000022F0BB68002B0DD0BB681B781B01084A134432
S31500002300BA689A4205D1BB684FF6FF729A800023DD
S31500002310FB73FFF74FFDFB7B18461037BD4680BDAC
S31500002320E004FE1F80B582B000AF0023FB713FE0E2
S31500002330FB79234A1B0113441B78FF2B35D0FB790D
S315000023401F4A1B01134404331B884FF6FF72934246
S315000023502BD0FB791A491A010A4404321288013A31
S3150000236091B2174A1B01134404330A461A80FB79BB
S31500002370134A1B01134404331B88002B15D1FB7928
S315000023800F4A1B01134404334FF6FF721A80FB7980
S315000023900B4A1B0113440C331B68FA7908491201D6
S315000023A00A440832126810469847FB790133FB71DC
S315000023B0FB79032BBCD900BF00BF0837BD4680BDE3
S315000023C0E004FE1F80B582B000AF78600D4B1B782D
S315000023D0002B08D10B4B01221A7000220A210A4851
S315000023E002F0C6FF07E0074B00221A7001220A21FD
S315000023F0054802F0BDFFFFF795FF00BF0837BD4651
S3150000240080BD00BF2105FE1F080FFE1F80B582B0EC
S3150000241000AF264B3B60A8220021386804F090FFED
S315000024203B6803221A613B6803225A613B68204AD3
S315000024309A613B681F4ADA613B684FF400621A6290
S315000024403B6800229A623B6800225A623B6800227F
S31500002450DA623B68164A1A663B68174A5A663B6850
S3150000246010229A663B6800221A673B680022DA66E9
S315000024703B6800225A67BFF35F8F00237B600CE046
S315000024807B68C3F10F030D4AD1563A687B68134443
S315000024900A461A707B6801337B607B680F2BEFD985
S315000024A0BFF35F8F00BF0837BD4680BD2405FE1F02
S315000024B0B8750000CC05FE1FCC0DFE1FC4750000CC
S315000024C080B58AB000AFF860B9607A6000233B62DD
S315000024D0FB68DB68FB61FB681B69BB61BA69FB696A
S315000024E09A4205D9BA69FB69D31A013B7B6207E0B8
S315000024F0FB689A68B969FB69CB1A1344013B7B6296
S31500002500FB689A68FB69D31A7A6A934228BF134616
S315000025107B627A6A7B68934228BF13467B62FB68BC
S315000025205A68FB6913447B617A6AB968786904F072
S31500002530F9FE3A6A7B6A13443B62BA687B6A1344C3
S31500002540BB607A687B6AD31A7B60FA697B6A13443C
S31500002550FB61FB689B68FA699A4201D10023FB6123
S31500002560BFF35F8FFB68FA69DA607B68002BB2D134
S315000025703B6A18462837BD4680BD80B588B000AF97
S31500002580F860B9607A60FB68DB68FB61FB689A6893
S31500002590FB69D31ABB61BA697B689A4211D9FB6899
S315000025A05A68FB6913443B617A68B968386904F074
S315000025B0B9FEBFF35F8FFA697B681A44FB68DA607D
S315000025C01FE0BB697B61FB685A68FB6913443B618A
S315000025D07A69B968386904F0A5FE7A68BB69D31AC6
S315000025E07B61FB685B683B61BA68BB6913447A69C7
S315000025F01946386904F096FEBFF35F8FFB687A6967
S31500002600DA6000BF2037BD4680BD80B487B000AF1A
S3150000261078607B681B693B617B68DB68FB603A69B5
S31500002620FB689A4208D87B689A68FB68D21A3B69AD
S315000026301344013B7B6104E03A69FB68D31A013B12
S315000026407B617B6918461C37BD465DF8047B704785
S3150000265080B588B000AFF860B9607A60BB68BB61CE
S31500002660FB685A1C13465B001344DB001F4A1344E5
S315000026707B617B695B69022B29D0022B2ED8002B4C
S3150000268002D0012B13D029E07869FFF7BEFF38612D
S315000026903A697B689A4202D20023FB6121E07B689B
S315000026A0FB617A68B9697869FFF767FF19E07869AD
S315000026B0FFF7ABFF38617A683B69934228BF134640
S315000026C0FB61FA69B9697869FFF757FF09E07A682B
S315000026D0B9697869FFF7F4FEF86102E00023FB614F
S315000026E000BFFB6918462037BD4680BD2405FE1F86
S315000026F080B588B000AFF860B9607A600E4BFB61B8
S31500002700FB691B785BB2532B01D0FFF77FFEEFF31B
S3150000271011834FF0200181F31188BB617A68B96893
S31500002720F868FFF795FF7861BB6983F311887B69C9
S3150000273018462037BD4680BD2405FE1F80B584B0EF
S3150000274000AF78600B46FB707B689B68FB60FB689C
S315000027505A1C7B685B689A420ED87B681A68FB68CD
S315000027601344FA781A70FB685A1C7B689A607B6877
S31500002770DB685A1C7B68DA607B689A687B685B68F2
S315000027809A4215D17B6818697B6819687B689B68D3
S315000027901A46FFF7ADFF02467B689B689A4204D053
S315000027A07B684FF0FF32DA6002E07B6800229A60B5
S315000027B000BF1037BD4680BD80B58AB000AFF86057
S315000027C0B9607A603B60BB683B6201237B62012390
S315000027D0FB6107E03A6A7B68B2FBF3F33B62FB6995
S315000027E00133FB613A6A7B689A42F3D23A68FB6925
S315000027F09A4201D93B68FB617B6B03F00103002B16
S3150000280026D13B6B002B23D07B6B03F00203002BFE
S3150000281005D03B68002B02D13023FB7601E0202354
S31500002820FB760CE03B6B013B3B6397F91B3019468B
S31500002830F868FFF783FFFB68DB68002B07DB3B6B61
S31500002840002B05D0FA693B6B9A42EBD300E000BF40
S31500002850FB68DB68002B56DB3B68012B03D93B6822
S31500002860013B3B6009E0BA687B6AB2FBF3F37B612C
S315000028707A697B689A4200D205E07B6A7A6802FB35
S3150000288003F37B62E8E7BA687B6AB2FBF3F37B612A
S315000028907B697A6A02FB03F3BA68D31ABB601C4AE7
S315000028A07B69134493F900301946F868FFF746FF31
S315000028B0FB68DB68002B08DB7A6A7B68B2FBF3F304
S315000028C07B627B6A002BDED100E000BF7B6B03F0EE
S315000028D00103002B17D03B6B002B14D00AE03B6B97
S315000028E0013B3B632021F868FFF728FFFB68DB68A4
S315000028F0002B07DB3B6B002B05D0FA693B6B9A423A
S31500002900EDD300E000BF00BF2837BD4680BD00BF45
S31500002910D875000080B588B002AFF860B9607A60FB
S315000029203B60BB68002BB8BF5B423B6101237B6108
S3150000293007E07B683A6992FBF3F33B617B690133FD
S315000029407B617B683A699A42F3DA3A687B699A4214
S3150000295001D93B687B613B6A002B0AD0BB68002B20
S3150000296004DB7B6A03F00403002B02D03B6A013BC5
S315000029703B627B6A03F00203002B02D03B68002B0C
S315000029801CD07B6A03F00103002B17D13B6A002B96
S3150000299014D00AE03B6A013B3B622021F868FFF74E
S315000029A0CDFEFB68DB68002B07DB3B6A002B05D0FE
S315000029B07A693B6A9A42EDD300E000BFFB68DB68A8
S315000029C0002B4ADBBB68002B07DABB685B42BB60A7
S315000029D02D21F868FFF7B2FE08E07B6A03F00403D6
S315000029E0002B03D02B21F868FFF7A8FEFB68DB68F5
S315000029F0002B32DB7B6A03F00203002B1FD07B6ABD
S31500002A0003F00103002B1AD13B68002B17D13B6A58
S31500002A10002B14D00AE03B6A013B3B623021F86888
S31500002A20FFF78CFEFB68DB68002B07DB3B6A002B9D
S31500002A3005D07A693B6A9A42EDD300E000BFFB6895
S31500002A40DB68002B09DBB9687B6A01933B6A00935C
S31500002A503B687A68F868FFF7AFFE00BF1837BD46D7
S31500002A6080BDFFFF80B5A2B002AFF860B9607A60A2
S31500002A7007F110033B6540237B650023BB65FB68BC
S31500002A803B660023FB65BB681B7887F87F30BB6815
S31500002A900133BB6097F97F30002B00F09F8197F9D7
S31500002AA07F30252B40F08D8100233B670123BB67D8
S31500002AB0BB681B7887F87F3097F97F30233B0D2B57
S31500002AC03ED801A252F823F0312B0000412B000022
S31500002AD0412B0000412B0000412B0000412B000040
S31500002AE0412B0000412B0000212B0000412B000050
S31500002AF0012B0000412B0000412B0000112B000090
S31500002B003B6F43F001033B67BB680133BB601AE0D0
S31500002B103B6F43F002033B67BB680133BB6012E0C7
S31500002B203B6F43F004033B67BB680133BB600AE0BD
S31500002B303B6F43F008033B67BB680133BB6002E0B1
S31500002B400023BB6700BFBB6F002BB1D10023FB6620
S31500002B50BB681B7887F87F3097F97F302F2B12DD03
S31500002B6097F97F30392B0EDCBB680133BB60FA6EF8
S31500002B7013469B0013445B001A4697F97F301344B3
S31500002B80303BFB66E4E700237B67BB681B7887F86E
S31500002B907F3097F97F302E2B1DD1BB680133BB6088
S31500002BA0BB681B7887F87F3097F97F302F2B12DDB3
S31500002BB097F97F30392B0EDCBB680133BB607A6F27
S31500002BC013469B0013445B001A4697F97F30134463
S31500002BD0303B7B67E4E7BB681B7887F87F3097F963
S31500002BE07F306C2B03D097F97F30682B07D1BB68F9
S31500002BF00133BB60BB681B7887F87F30EFE797F936
S31500002C007F30252B00F0D180252BC0F2D580782B84
S31500002C1000F3D280582BC0F2CF80583B202B00F215
S31500002C20CB8001A252F823F01F2D0000B92D000021
S31500002C30B92D0000B92D0000B92D0000B92D0000F6
S31500002C40B92D0000B92D0000B92D0000B92D0000E6
S31500002C50B92D0000AD2C0000D32C0000B92D0000CA
S31500002C60B92D0000B92D0000B92D0000B92D0000C6
S31500002C70B92D0000B92D0000B92D0000B92D0000B6
S31500002C80B92D0000B92D0000852D0000B92D0000DA
S31500002C90B92D0000452D0000B92D0000F92C0000CB
S31500002CA0B92D0000B92D00001F2D00007B681B68A0
S31500002CB0191D7A6811601B68BB67BB6F87F86730A0
S31500002CC097F9672007F1500311461846FFF736FDBE
S31500002CD073E07B681B68191D7A6811601B68BB6707
S31500002CE007F150003B6F0193FB6E00937B6F0A2246
S31500002CF0B96FFFF70FFE60E07B681B68191D7A68E5
S31500002D0011601B68BB67B96F07F150003B6F0193F9
S31500002D10FB6E00937B6F0A22FFF74EFD4DE07B684A
S31500002D201B68191D7A6811601B68BB67B96F07F1CC
S31500002D3050003B6F0193FB6E00937B6F1022FFF7F1
S31500002D403BFD3AE07B681B68191D7A6811601B68B9
S31500002D50BB66BB6E1B7887F87F30BB6E0133BB66E4
S31500002D6097F97F30002B0BD097F97F2007F150039E
S31500002D7011461846FFF7E2FCFB6D002BE9DA1CE072
S31500002D8000BF1AE07B681B68191D7A6811601B6812
S31500002D90BB67B96F07F15000002301930823009326
S31500002DA008231022FFF708FD07E007F1500325214D
S31500002DB01846FFF7C3FC00E000BFBB680133BB60E9
S31500002DC007E097F97F2007F1500311461846FFF7F1
S31500002DD0B5FCFB6D002BBFF656AE00E000BFFB6DE9
S31500002DE0002B0DDDBB6D002B06D0BA6D07F110036D
S31500002DF01946F868FFF77CFCFB6DBA6D1344FB655A
S31500002E00FB6D18468037BD4680BD00BF0EB480B549
S31500002E1085B000AF786007F12003BB6007F10803B7
S31500002E201A46F9697868FFF71DFEF860FB681846D0
S31500002E301437BD46BDE8804003B0704780B582B008
S31500002E4000AF00237B601949194801F0AFFC786098
S31500002E507B68002B0ED0174B174A18490020FFF746
S31500002E60D5FF7B68002B05D07A6815490020FFF74F
S31500002E70CDFF00BE0C2213490D4801F0C5FD786058
S31500002E807B68002B0ED00B4B0B4A0C490020FFF73A
S31500002E90BDFF7B68002B05D07A6809490020FFF743
S31500002EA0B5FF00BE00BF0837BD4680BDB07B000041
S31500002EB0C00FFE1FE875000050760000087600007F
S31500002EC024760000DC0DFE1F80B584B000AF002321
S31500002ED0FB60194A3B4607CA83E8070017491848AA
S31500002EE001F064FCF860FB68002B0ED0154B164A07
S31500002EF016490020FFF78AFFFB68002B05D0FA6809
S31500002F0013490020FFF782FF00BE3B460C221946FC
S31500002F100B4801F090FD00BF0E4B1B78DBB283F02F
S31500002F200103DBB2002BF7D10A4B00221A7000BF57
S31500002F301037BD4680BD00BF44760000487B0000C8
S31500002F40600FFE1FE875000064760000087600003A
S31500002F5024760000F50DFE1F80B483B000AF7860C4
S31500002F607B681B79022B03D1054B01221A7000E006
S31500002F7000BF00BF0C37BD465DF8047B704700BF3D
S31500002F80F50DFE1F80B400AF0F4B1B78DBB2002B94
S31500002F9014D00E4B5B7A0D2B0DD10C4B9B7A0A2B62
S31500002FA009D10A4BDB7A032B05D1094B074A0132BB
S31500002FB01068516803C3044B00221A7000BFBD4657
S31500002FC05DF8047B704700BFF40DFE1FDC0DFE1F8D
S31500002FD0EC0DFE1F80B584B000AF78600023FB6067
S31500002FE07B681B79012B1BD1114B01221A700C2215
S31500002FF01049114801F008FDF860FB68002B11D05C
S315000030000E4B0F4A0F490020FFF700FFFB68002B0D
S3150000301008D0FA680C490020FFF7F8FE00BE01E070
S3150000302000BF00E000BF00BF1037BD4680BD00BF37
S31500003030F40DFE1FDC0DFE1FC00FFE1FE87500001D
S3150000304078760000087600002476000080B584B00B
S3150000305002AF022300934FF41653002200210E48BC
S31500003060FEF74EFD0346FB71FB79002B01D10023D1
S31500003070FB7101F033F9FFF7E1FE00F003FA00F00F
S3150000308007FA01F057F9FFF71FFFFFF77BFFFDF780
S31500003090B3FAFDF755FAF2E75002FE1F80B582B08B
S315000030A000AF0346FB71FB79022B03D103490448A9
S315000030B002F04AF900BF0837BD4680BDD87C000043
S315000030C0080FFE1F80B582B000AF00237B60254944
S315000030D0254802F0B3FE78607B68002B0ED0234BA8
S315000030E0234A24490020FFF791FE7B68002B05D078
S315000030F07A6821490020FFF789FE00BE1F4B012296
S315000031001A711E4B00225A711D4B01221A711C4B5B
S3150000311000225A711B491C4802F090FE78607B68B9
S31500003120002B0ED0194B124A12490020FFF76EFEF3
S315000031307B68002B05D07A680F490020FFF766FEF2
S3150000314000BE0E4B01221A760C4B00225A760C4B0F
S3150000315001221A760A4B00225A7600BF0837BD466E
S3150000316080BD00BF347C00001810FE1F9076000062
S3150000317098770000B8760000D47600002C0EFE1F6B
S31500003180040EFE1FF07B0000F00FFE1FF476000019
S3150000319080B582B000AF78607B689B88B3F5804FBE
S315000031A000F09180B3F5804F00F39380B3F5005F94
S315000031B000F08980B3F5005F00F38B80B3F5805F84
S315000031C000F08180B3F5805F00F38380B3F5006F74
S315000031D05FD0B3F5006F7CDCB3F5806F5FD0B3F5DD
S315000031E0806F76DCB3F5007F6DD0B3F5007F70DCC1
S315000031F0B3F5807F67D0B3F5807F6ADC202B45DC92
S31500003200022B66DB023B1E2B63D801A252F823F089
S31500003210C7320000D3320000C7320000D3320000AC
S31500003220D3320000D3320000C7320000D332000090
S31500003230D3320000D3320000D3320000D332000074
S31500003240D3320000D3320000C7320000D332000070
S31500003250D3320000D3320000D3320000D332000054
S31500003260D3320000D3320000D3320000D332000044
S31500003270D3320000D3320000D3320000D332000034
S31500003280D3320000D3320000C7320000802B1AD0A0
S315000032901FE07B681B68114A0121D15419E07B6845
S315000032A01B680F4A0121D1547B681A6813469B009C
S315000032B013449B000B4A98187B6814331422194652
S315000032C004F030F805E07B681B68074A0121D154F9
S315000032D000BF00BF0837BD4680BD00BFF80DFE1F0A
S315000032E0FC0DFE1F040EFE1F000EFE1F80B582B0F1
S315000032F000AF78607B689B88B3F5804F00F09180C3
S31500003300B3F5804F00F39380B3F5005F00F089803A
S31500003310B3F5005F00F38B80B3F5805F00F081802A
S31500003320B3F5805F00F38380B3F5006F5FD0B3F52C
S31500003330006F7CDCB3F5806F5FD0B3F5806F76DC11
S31500003340B3F5007F6DD0B3F5007F70DCB3F5807FF9
S3150000335067D0B3F5807F6ADC202B45DC022B66DB69
S31500003360023B1E2B63D801A252F823F0233400003F
S315000033702F340000233400002F3400002F340000C7
S315000033802F340000233400002F3400002F340000B7
S315000033902F3400002F3400002F3400002F3400009B
S315000033A02F340000233400002F3400002F34000097
S315000033B02F3400002F3400002F3400002F3400007B
S315000033C02F3400002F3400002F3400002F3400006B
S315000033D02F3400002F3400002F3400002F3400005B
S315000033E02F34000023340000802B1AD01FE07B68A6
S315000033F01B68114A0121D15419E07B681B680F4AEA
S315000034000121D1547B681A6813469B0013449B0024
S315000034100B4A98187B6814331422194603F082FF6E
S3150000342005E07B681B68074A0121D15400BF00BF35
S315000034300837BD4680BD00BFF80DFE1FFC0DFE1F00
S31500003440040EFE1F000EFE1F80B582B000AF0023E3
S315000034507B60084802F03AFE78607B68002B05D056
S31500003460054B064A06490020FFF7D0FC00BF083787
S31500003470BD4680BD1810FE1F7C770000AC770000AB
S31500003480B876000080B500AFFFF71CFE00BF80BD18
S315000034902DE9B04386B004AF00233B6000237B6078
S315000034A0674B02933B46019300230093F0230422CB
S315000034B00A21002000F026FE6249012000F0F0F803
S315000034C06049002000F03AFB5D4B02933B460193B6
S315000034D000230093F02306220A21002000F012FEAA
S315000034E05849012000F0DCF85649002000F026FB80
S315000034F0534B02933B4601933F230093F02308224C
S315000035000A21002000F0FEFD4E49012000F0C8F817
S315000035104C49002000F012FB494B02933B460193B5
S3150000352000230093F02309220A21002000F0EAFD7F
S315000035304449012000F0B4F84249002000F0FEFAA8
S315000035403F4B02933B46019300230093F0230A224C
S315000035500A21002000F0D6FD3A49012000F0A0F82B
S315000035603849002000F0EAFA354B02933B460193B6
S3150000357000230093F0230C220A21002000F0C2FD54
S315000035803049012000F08CF82E49002000F0D6FAD0
S3150000359000233B702A4B02933B4601933F23009343
S315000035A0F0231A220A21002000F0ACFD2549012053
S315000035B000F076F801233B70214B02933B460193C2
S315000035C03F230093F0231A220A21002000F09AFDDF
S315000035D01C49012000F064F81B4B1C4A1A601A4B68
S315000035E042F210725A60184B1B68002298469146A8
S315000035F03B4604224046494600F02AF8124B5B68D7
S3150000360000221C4615463B46043304222046294622
S3150000361000F01EF80A4B02933B4601933F230093AA
S31500003620F0231C220A21002000F06CFD0549012030
S3150000363000F036F800BF0837BD46BDE8B08300BFCE
S315000036404C7C0000540EFE1F980EFE1FE0930400F3
S3150000365080B487B000AFC7E902013B601346FB7137
S3150000366007F108033B610123FB750DE0FA79FB7D49
S31500003670D31A3A691A44FB7D013B39680B44127828
S315000036801A70FB7D0133FB75FA7DFB799A42EDD901
S3150000369000BF00BF1C37BD465DF8047B7047FFFFC7
S315000036A080B586B004AF03463960FB71FB79C44A26
S315000036B0D35CDBB2002B00F02B82FB79C04A0021E1
S315000036C0D154FA7913469B0013449B000833BD4A34
S315000036D0134404331A46BC490020FFF797FBFA79D6
S315000036E013469B0013449B000833B64A1344191D26
S315000036F0FA79B44813469B0013449B0003440633EF
S315000037001B781A46386803F00DFEFA79AD49134660
S315000037109B0013449B000B441B689B0D03F00F0397
S31500003720D9B2AA4A538861F389135380FA79A54915
S3150000373013469B0013449B000B441B681B0C03F0B1
S315000037403F03D9B2A14A937861F305039370FA79DE
S315000037509C4913469B0013449B000B441B681B0AA1
S31500003760DAB29A4B5A70FA79964913469B0013447B
S315000037709B000B441B68DAB2944B1A70934B5B7830
S315000037803F2B40F0F080914B5B8803F470739BB243
S31500003790B3F5207F40F0D2808C4B9B78C3F30503B2
S315000037A0DBB2013B1B2B00F2AA8101A252F823F0E7
S315000037B0FF3A0000FF3A0000FF3A0000FF3A00001F
S315000037C0FF3A0000FF3A0000FF3A000021380000EF
S315000037D0FF3A0000FF3A0000FF3A0000FF3A0000FF
S315000037E0FF3A0000FF3A0000FF3A0000FF3A0000EF
S315000037F0FF3A0000FF3A0000FF3A0000FF3A0000DF
S31500003800FF3A0000FF3A0000FF3A0000FF3A0000CE
S31500003810FF3A000047380000FF3A00005F3800001A
S315000038206B4B6C4A1A606A4B6B4A5A60F8796B4B61
S315000038300293674B0193F02300933F2308220A214A
S3150000384000F060FC64E1FA795E4913469B0013447C
S315000038509B000B440C331A78614B1A7058E1FA79C5
S31500003860584913469B0013449B000B440C331B78AA
S315000038701B061846FA79534913469B0013449B00CE
S315000038800B440D331B781B0440EA0301FA794D48BB
S3150000389013469B0013449B0003440E331B781B0204
S315000038A01943FA79474813469B0013449B00034487
S315000038B00F331B780B4307EE903AB8EE677ADFEDCD
S315000038C0496AC7EE267A484BC3ED007AFA793D4934
S315000038D013469B0013449B000B4410331B781B06B6
S315000038E01846FA79374913469B0013449B000B444C
S315000038F011331B781B0440EA0301FA793148134659
S315000039009B0013449B00034412331B781B0219438C
S31500003910FA792C4813469B0013449B000344133347
S315000039201B780B4307EE903AB8EE677ADFED2D6A07
S31500003930C7EE267A2D4BC3ED007AE9E0234B5B8870
S3150000394003F470739BB2B3F5307F40F0DA801F4BFF
S315000039509B78C3F30503DBB2012B00F0D480022B66
S3150000396000F0D380D4E0194B5B8803F470739BB2EC
S31500003970B3F5207F40F0CC80144B5B78002B40F0F1
S31500003980B680124B9B78C3F30503DBB2043B082BCE
S3150000399000F2BD8001A252F823F000BFF139000009
S315000039A00F3B0000293A00000F3B00000F3B0000D0
S315000039B0673A00008D3A00000F3B0000C53A000050
S315000039C0FC0DFE1F040EFE1F5C7700005C0EFE1F42
S315000039D0780EFE1F00030D4000001388087C0000CF
S315000039E0D80EFE1F00007A44DC0EFE1FE00EFE1FFE
S315000039F0494B00229A70484B10221A71464B80227E
S31500003A005A71454B41229A71434B0022DA71F8797B
S31500003A10424B0293404B0193F02300930023042270
S31500003A200A2100F06FFB73E03D4B0F221A703C4BEE
S31500003A30B4225A703A4B0F229A70394BA522DA708B
S31500003A40374B0F221A71364BA0225A71F879334B35
S31500003A500293334B0193F0230093002306220A219D
S31500003A6000F050FB54E02F4B2F4A1A602D4B2F4A83
S31500003A705A60F879294B02932A4B0193F02300935D
S31500003A80002309220A2100F03DFB41E0284B4EF6B7
S31500003A9002621A80264B4FF4C8425A80244B0122F8
S31500003AA09A80234B4DF60542DA80F8791B4B029338
S31500003AB01F4B0193F023009300230A220A2100F0F2
S31500003AC021FB25E01B4B45F613021A80194B46F2E3
S31500003AD001625A80F879114B0293164B0193F02339
S31500003AE0009300230C220A2100F00CFB10E0124B7D
S31500003AF05B8803F470739BB2B3F5307F08E000BFB8
S31500003B0006E000BF04E000BF02E000BF00E000BF27
S31500003B1000BF0837BD4680BD680EFE1F087C00004A
S31500003B20700EFE1F800EFE1F00030D40000013885E
S31500003B30880EFE1F900EFE1F5C0EFE1F80B582B023
S31500003B4000AF03463960FB71FB79994AD35CDBB25F
S31500003B50002B00F0B882FB79954A0021D154FA79FE
S31500003B6013469B0013449B000833924A13440433C4
S31500003B701A4691490020FFF749F9FA7913469B0046
S31500003B8013449B0008338B4A1344191DFA7989485C
S31500003B9013469B0013449B00034406331B781A46C6
S31500003BA0386803F0BFFBFA79824913469B00134439
S31500003BB09B000B441B689B0D03F00F03D9B27F4A91
S31500003BC0538861F389135380FA797A4913469B0027
S31500003BD013449B000B441B681B0C03F03F03D9B234
S31500003BE0764A937861F305039370FA79714913461F
S31500003BF09B0013449B000B441B681B0ADAB26F4BF5
S31500003C005A70FA796B4913469B0013449B000B4488
S31500003C101B68DAB2694B1A70684B5B78F02B40F080
S31500003C205282664B5B8803F470739BB2B3F5207FB8
S31500003C3040F04982624B9B78C3F30503DBB2043B39
S31500003C40082B00F2428201A252F823F0713C0000D8
S31500003C50CB400000E13C0000CB400000E53D000009
S31500003C60A73E0000693F0000CB400000494000002D
S31500003C70FA79504913469B0013449B000B440E33BC
S31500003C801A78504B1A70FA794A4913469B00134426
S31500003C909B000B4410331A784B4B1A70FA7945493E
S31500003CA013469B0013449B000B4411331A78474B71
S31500003CB01A70FA793F4913469B0013449B000B4444
S31500003CC012331A78424B1A70FA793A4913469B0016
S31500003CD013449B000B4413331A783E4B1A70F5E1DC
S31500003CE0FA79344913469B0013449B000B440C336A
S31500003CF01B789BB21B029BB21846FA792D491346D4
S31500003D009B0013449B000B440D331B78034307EEC3
S31500003D10903AB8EEE77AF2EE046AC7EE267A2E4BB0
S31500003D20C3ED007AFA79234913469B0013449B009E
S31500003D300B440E331B789BB21B029BB21846FA79D2
S31500003D401C4913469B0013449B000B440F331B78FE
S31500003D50034307EE903AB8EEE77AF2EE046AC7EE4E
S31500003D60267A1E4BC3ED007AFA79124913469B0058
S31500003D7013449B000B4410331B789BB21B029BB26F
S31500003D801846FA790B4913469B0013449B000B44D3
S31500003D9011331B78034307EE903AB8EEE77AF2EE5A
S31500003DA0046AC7EE267A0E4BC3ED007A8EE100BF99
S31500003DB0FC0DFE1F040EFE1F5C770000600EFE1F4A
S31500003DC05C0EFE1FA00EFE1FA10EFE1FA20EFE1F02
S31500003DD0A30EFE1FA40EFE1FA80EFE1FAC0EFE1F96
S31500003DE0B00EFE1FFA79BB4913469B0013449B0095
S31500003DF00B440C331B781906FA79B64813469B0018
S31500003E0013449B0003440D331B781B041943FA79B2
S31500003E10B04813469B0013449B0003440E331B78A3
S31500003E201B021943FA79AB4813469B0013449B00C7
S31500003E3003440F331B780B43A74AA2FB03239B09BA
S31500003E40A64A1360FA79A34913469B0013449B00C4
S31500003E500B4410331B781906FA799E4813469B00CB
S31500003E6013449B00034411331B781B041943FA794E
S31500003E70984813469B0013449B00034412331B7857
S31500003E801B021943FA79934813469B0013449B007F
S31500003E90034413331B780B438F4AA2FB03239B096E
S31500003EA08F4A136012E1FA798A4913469B0013443C
S31500003EB09B000B440C331B781906FA798548134688
S31500003EC09B0013449B0003440D331B781B041943CA
S31500003ED0FA79804813469B0013449B0003440E3333
S31500003EE01B781B021943FA797A4813469B00134440
S31500003EF09B0003440F331B780B43774AA2FB032333
S31500003F009B09784A1360FA79724913469B00134459
S31500003F109B000B4410331B781906FA796D4813463B
S31500003F209B0013449B00034411331B781B04194365
S31500003F30FA79684813469B0013449B0003441233E6
S31500003F401B781B021943FA79624813469B001344F7
S31500003F509B00034413331B780B435F4AA2FB0323E6
S31500003F609B09614A1360B1E0FA795A4913469B00EE
S31500003F7013449B000B440C331B781B0219B2FA79CD
S31500003F80544813469B0013449B0003440D331B788F
S31500003F901BB20B431BB29AB2544B1A80FA794D49A5
S31500003FA013469B0013449B000B440E331B781B02E5
S31500003FB019B2FA79474813469B0013449B00034401
S31500003FC00F331B781BB20B431BB29AB2484B1A80B5
S31500003FD0FA79404913469B0013449B000B44103367
S31500003FE01B781902FA793B4813469B0013449B0041
S31500003FF0034411331B780B4307EE903AB8EEE77A89
S31500004000F2EE046AC7EE267A3A4BC3ED007AFA79E5
S31500004010304913469B0013449B000B4412331B7814
S315000040201902FA792B4813469B0013449B0003445C
S3150000403013331B7841EA030213469B0013445B00CB
S315000040401A462D4B1A6041E0FA79224913469B0025
S3150000405013449B000B440C331B781902FA791D4854
S3150000406013469B0013449B0003440D331B780B43FC
S3150000407007EE903AB8EEE77AF2EE046AC7EE267AD1
S315000040801E4BC3ED007AFA79124913469B0013447E
S315000040909B000B440E331B781902FA790D48134620
S315000040A09B0013449B0003440F331B780B4307EE1E
S315000040B0903AB8EEE77AF2EE046AC7EE267A104B2B
S315000040C0C3ED007A02E000BF00E000BF00BF083782
S315000040D0BD4680BD040EFE1FD34D6210B40EFE1FFA
S315000040E0B80EFE1FBC0EFE1FC00EFE1FC40EFE1F26
S315000040F0C60EFE1FC80EFE1FCC0EFE1FD00EFE1FE4
S31500004100D40EFE1F90B585B000AF04460846114692
S315000041101A462346FB710346BB710B467B71134659
S315000041203B710023BB60434BFB60BB7903F00F037D
S31500004130D9B2414A538861F3891353807B7903F0DE
S315000041403F03D9B23C4A937861F3050393703A4A28
S315000041503B791370384A97F820305370FA79364B0A
S315000041601968364813469B0013449B0003441960A4
S31500004170FA79324913469B0013449B000B440633DD
S3150000418008221A70FA7913469B0013449B000833E1
S315000041902A4A134404330822796A184603F0C2F8FF
S315000041A0BB6A1868FA7913469B0013449B00234A9E
S315000041B013441A46042101F0DBFFB860BB68002BEC
S315000041C010D01F4B1F4A20490020FEF71FFEFFF7A5
S315000041D03BF9BB68002B05D0BA681C490020FEF7E6
S315000041E015FE00BE00BFFB79194AD35CDBB283F033
S315000041F00103DBB2002B05D0FB68013BFB60FB68CB
S31500004200002BF0D1FB68002B0BD1124B0D4A0E4947
S315000042100020FEF7FBFD01220C490020FEF7F6FD0B
S3150000422000BEFB790A4A0021D15400BF1437BD46AF
S3150000423090BD00BF20A107005C0EFE1F2C0EFE1FC6
S315000042401C770000B8770000B8760000D47600002E
S31500004250F80DFE1F3477000080B582B000AF002352
S315000042607B600949094801F0BDFA78607B68002B3C
S3150000427005D0074B074A08490020FEF7C7FD7B68B3
S3150000428018460837BD4680BDE07A0000100FFE1FB5
S31500004290CC77000084780000F477000080B582B007
S315000042A000AF00237B60094801F0BEFA78607B68A6
S315000042B0002B05D0064B074A07490020FEF7A6FD4E
S315000042C07B6818460837BD4680BD00BF100FFE1F2D
S315000042D01078000094780000F477000080B582B072
S315000042E000AF00237B600D490D4800F05FFA78604F
S315000042F07B68002B0ED00B4B0B4A0C490020FEF7B7
S3150000430085FD7B68002B05D07A6809490020FEF7F9
S315000043107DFD00BE00BF0837BD4680BD7C7B00002A
S31500004320900FFE1FA0780000FC780000C078000007
S31500004330DC78000080B400AF00BFBD465DF8047BAA
S315000043407047FFFF80B483B000AF78607B681B794D
S31500004350012B05D0022B06D1064B01221A7003E071
S31500004360054B01221A7000BF00BF0C37BD465DF831
S31500004370047B7047E40EFE1FE50EFE1F80B582B07B
S3150000438000AF00237B600949094800F00FFA786006
S315000043907B68002B05D0074B074A08490020FEF72B
S315000043A035FD7B6818460837BD4680BDE80EFE1F02
S315000043B0300FFE1FC0790000647A000060790000AB
S315000043C0B0B483B000AF0346FB71104A104B1446DD
S315000043D01D460FCD0FC495E80F0084E80F00FB794A
S315000043E0002B02D0012B04D007E0084B03229A7061
S315000043F007E0064B02229A7003E0044B00229A70F3
S3150000440000BF00BF0C37BD46B0BC7047E80EFE1FAC
S31500004410147B000080B582B000AF00237B60104B98
S315000044203B60012240F601310E4800F0A1FF3B68D7
S315000044301B6A9B78DAB23B681B6A02F07F02D2B233
S315000044409A707B68002B05D0074B084A0849002064
S31500004450FEF7DCFC7B6818460837BD4680BD00BF0A
S31500004460300FFE1F080FFE1FC0790000747A00008F
S315000044706079000080B582B000AF00237B60104BEE
S315000044803B60012240F601310E4800F071FF3B68A7
S315000044901B6A9B78DAB23B681B6A22F04002D2B2F2
S315000044A09A707B68002B05D0074B084A0849002004
S315000044B0FEF7ACFC7B6818460837BD4680BD00BFDA
S315000044C0300FFE1F080FFE1FC0790000847A00001F
S315000044D06079000080B582B000AF00237B60104B8E
S315000044E03B60012240F601310E4800F041FF3B6877
S315000044F01B6A9B78DAB23B681B6A42F04002D2B272
S315000045009A707B68002B05D0074B084A08490020A3
S31500004510FEF77CFC7B6818460837BD4680BD00BFA9
S31500004520300FFE1F080FFE1FC0790000947A0000AE
S315000045306079000080B582B000AF00237B60084838
S3150000454000F00EFA78607B68002B05D0054B064A12
S3150000455006490020FEF75AFC00BF0837BD4680BD5D
S31500004560300FFE1F387A0000A47A00006079000040
S3150000457080B500AFFEF76AFD0023184680BD80B403
S3150000458083B000AFEFF303837B607B683B603B88BF
S31500004590C3F308039BB2DBB2103BDBB25BB2184637
S315000045A00C37BD465DF8047B7047FFFF80B487B0CB
S315000045B000AF0346FB710E4B1B6A7B61FB797A6980
S315000045C022FA03F303F007033B617B691B0E03F03A
S315000045D00703FB60074B1A68FB689A403B6922FA9F
S315000045E003F318461C37BD465DF8047B704700BFD1
S315000045F000E001400C12FE1F80B483B000AF0346FA
S315000046003960FB7197F9073004493A6841F823206D
S3150000461000BF0C37BD465DF8047B70478410FE1F53
S3150000462080B483B000AF0346FB710B4997F907309E
S3150000463003F1C00251F822306FF3104341F82230E3
S31500004640054A97F90730C03352F8233000BF0C37BC
S31500004650BD465DF8047B70470060004080B584B0BD
S3150000466000AF0346FB7197F907301846FFF7D8FFEE
S31500004670BFF35F8F00BF97F90730FB60FB6803F05D
S315000046801F02074997F907305B09012000FA02F279
S31500004690603341F8232000BF1037BD4680BD00BF00
S315000046A000E100E080B584B000AF0346B9607A60EF
S315000046B0FB73BB68DAB2094997F90F301201D2B21F
S315000046C00B4483F8002397F90F3079681846FFF7F3
S315000046D093FF00BF1037BD4680BD00BF00E100E07C
S315000046E080B485B000AF0346FB7197F90730FB60D5
S315000046F0FB6803F01F020749FB685B09012000FA0B
S3150000470002F241F8232000BF1437BD465DF8047B52
S31500004710704700BF00E100E080B582B000AF0346FD
S31500004720FB7197F907301846FFF798FF97F907309E
S315000047301846FFF7D5FF00BF0837BD4680BDFFFF0F
S3150000474080B485B000AF0346FB7197F90730FB6074
S31500004750FB6803F01F020B4997F907305B0901203C
S3150000476000FA02F2203341F82320BFF34F8F00BF37
S31500004770BFF36F8F00BF00BF1437BD465DF8047BE3
S31500004780704700BF00E100E080B483B000AF03468D
S31500004790FB7197F90730044A52F8233018460C3754
S315000047A0BD465DF8047B70478410FE1F80B58AB055
S315000047B000AF786039607B687B623B681B7803F1E9
S315000047C0007303F560535B011A467B6A1A627B6AC3
S315000047D000221A707B6A3A68DA613B685A697B6A1A
S315000047E05A623B689A697B6ADA627B6A00229A623D
S315000047F07A6A9378012161F3010393703B685B78D1
S31500004800002B05D17A6A9378022161F30103937034
S315000048103968786A00F046FB786A00F095FA00235A
S315000048203B62EFF31083FB60FB683B6201233B6155
S315000048303B6983F3108800BF474B5A683B681B7877
S3150000484019464FF00043CB40DB43434913404B60CE
S31500004850414B5B683B6A7B617B6983F3108800BFD1
S315000048607B6A1B6A00229A707B6A1B6A00221A7195
S315000048707B6A1B6A00225A727B6A1B6A00229A7242
S315000048807B6A1B6A0022DA727B6A1B6A00225A83E1
S315000048903B681B781A4640F2FF33D34003F001030E
S315000048A0002B03D07B6A1B6A4022DA747B6A1B6A80
S315000048B006221A773968786A00F050FA7B6A002275
S315000048C0DA607B6A00221A617B6A00225A617B6A7F
S315000048D000229A613B68DB69FB61FB691B7803F088
S315000048E00303BB61BB6943F01003BB617B6ADB69F1
S315000048F093F905301846FFF70FFF7B6ADB6993F9DA
S315000049000B301846FFF708FFBB6943F04003BB6155
S315000049107B6ADB6993F907301846FFF7FDFE7B6A71
S31500004920DB6993F909301846FFF7F6FEBB6943F0D9
S315000049302003BB617B6A1B6ABA69D2B29A70FB69B3
S315000049405A897B6A1A817B6A044A5A600023184690
S315000049502837BD4680BD00BFFC6F04405549435310
S3150000496080B588B000AF78607B68FB61FB69002288
S315000049705A60FB691B6A00229A70FB69DB6993F92E
S3150000498005301846FFF7DCFEFB69DB6993F90B304F
S315000049901846FFF7D5FEFB69DB6993F90730184621
S315000049A0FFF7CEFEFB69DB6993F909301846FFF77E
S315000049B0C7FE0023BB61EFF31083FB60FB68BB619E
S315000049C001233B613B6983F3108800BF0D4B5A6896
S315000049D0FB69DB691B7819464FF00043CB40094958
S315000049E013434B60074B5B68BB697B617B6983F351
S315000049F0108800BFF86900F0A7F900231846203791
S31500004A00BD4680BDFC6F044080B487B000AFF8603F
S31500004A10B9607A60FB687B6100233B617B69BA6899
S31500004A205A617B697A689A613B6918461C37BD46AC
S31500004A305DF8047B704780B487B000AFF860B9605A
S31500004A407A60FB687B617B691B6A9B78DAB27B695B
S31500004A501B6A02F07B02D2B29A707B699B78C3F321
S31500004A600103DBB21A467B689A1A7B691A617B6975
S31500004A709B78C3F30103DBB21A46BB681A447B6911
S31500004A80DA607B691B6A9B78DAB27B691B6A62F023
S31500004A907F02D2B29A707B699B7803F00303DBB284
S31500004AA0022B0AD1BB681B887A69126A6FEAC35364
S31500004AB06FEAD3539BB2D38104E07B691B6ABA6861
S31500004AC01278DA70002318461C37BD465DF8047B61
S31500004AD0704780B584B000AF786039607B68FB6052
S31500004AE0FB681B6A9B78DBB203F07B03FB72FB68F7
S31500004AF01B6AFA7A22F07002D2B29A70FB68002220
S31500004B00DA60FB681B6A3968184600F0F8F9FB683A
S31500004B101B6AFA7A9A70002318461037BD4680BD84
S31500004B202DE9B04F90B000AF7861FA60BB600B46DC
S31500004B30FB74BB68FF229A70BA6813786FF382031E
S31500004B401370BB688022DA707C4BFB63002387F806
S31500004B503B3000233B620C20FFF728FDF861002361
S31500004B607B63D7E000233B63CDE07B6BDBB274490C
S31500004B703A6B0A441278C2F34002D1B270483A6BDB
S31500004B8002441278C2F38002D2B20A43D2B29342EE
S31500004B9040F0B1806B4A3B6B32F813301A467B69A2
S31500004BA002FB03F33B62FA693B6AB2FBF3F3FB6277
S31500004BB0FB6AB3F5807F00F2A38097E0FB6A013BB6
S31500004BC0FB62FB6A01333A6A02FB03F3BB61FB69D2
S31500004BD0002298469146594BDA179A4693460AFBA5
S31500004BE009F208FB0BF31344A8FB0A452B441D46A8
S31500004BF0BB69DA173B607A60D7E90023204629466D
S31500004C0002F0D6F902460B464C4BD31ABB62002380
S31500004C1087F82730FB7C002B18D0BA69FB691B0A82
S31500004C20B2FBF3F387F8273097F92730002B64DAC5
S31500004C30424ABB6A134497F8272002FB03F34FF45A
S31500004C40807293FBF2F33D4A9B1ABB62BB6A002B50
S31500004C5002DABB6A5B42BB62BA6AFB6B9A4239DA1A
S31500004C60374A3B6B13441B78C3F30003D9B2BA68C7
S31500004C70137861F386131370314A3B6B13441B7828
S31500004C80C3F34003D9B2BA68137861F304131370FF
S31500004C902B4A3B6B13441B78C3F38003D9B2BA6823
S31500004CA0137861F3C3031370254A3B6B13441B78D7
S31500004CB0C3F3C103D9B2BA68537861F301035370E1
S31500004CC0FB6ADAB2BB689A70BB6AFB6397F8273057
S31500004CD087F83B30FB7C002B11D0BA68137843F081
S31500004CE004031370BB6897F83B20DA70FB6A002B4D
S31500004CF07FF464AF04E000BF02E000BF00E000BF45
S31500004D003B6B01333B633B6B0C2B7FF62EAF7B6B10
S31500004D1001337B637B6B012B04D8FB68FA6B9A42E9
S31500004D203FF720AFFB68FA6B9A4201DD032300E0F0
S31500004D30002318464037BD46BDE8B08FA086010067
S31500004D40A07D0000B07D000080B483B000AF786025
S31500004D5000BF0C37BD465DF8047B704780B586B052
S31500004D6000AF786039603B681B781A4640F2FF3323
S31500004D70D34003F00103002B04D07B681B6A4FF479
S31500004D8078429A823B689B781A013B68DB78DB00A5
S31500004D9013437B61F2233B613B685B78032B04D1B1
S31500004DA07B6943F040037B6107E03B685B78002B3F
S31500004DB003D13B6923F010033B617B681B6A7A6968
S31500004DC0D2B21A707B681B6A3A69D2B29A713B6892
S31500004DD0DB69BB60BB681B7B5B00DAB27B681B6A66
S31500004DE002F00202D2B25A730023FB60BB685B7802
S31500004DF0DB01DBB2FA681343FB60BB689B785B019F
S31500004E0003F02003FA681343FB607B681B6A0022E9
S31500004E101A72BB681B78022B03D0BB681B78032B66
S31500004E2011D17B681B6AFF225A70BB681B78022B64
S31500004E3003D1FB6843F01003FB607B681B6AFA68CA
S31500004E40D2B2DA710DE07B681B6AFA68D2B2DA7107
S31500004E507B681A6ABB685B681946104600F04FF813
S31500004E6000BF00BF1837BD4680BD80B582B000AF19
S31500004E7078600B46FB701346BB7097F902301846F4
S31500004E80FFF75EFC97F902301846FFF7C9FBF97881
S31500004E9097F902307A681846FFF704FC00BF083716
S31500004EA0BD4680BD80B582B000AF786039603B6892
S31500004EB0997A3B6893F90B301A467868FFF7D5FF65
S31500004EC03B6819793B6893F905301A467868FFF70D
S31500004ED0CCFF3B6899793B6893F907301A467868A6
S31500004EE0FFF7C3FF3B68197A3B6893F909301A4606
S31500004EF07868FFF7BAFF00BF0837BD4680BD80B4AB
S31500004F0083B000AF786039603B689A787B685A70E6
S31500004F103B685B78C3F30103D9B27A68137861F30F
S31500004F20010313703B68DA787B689A747B68DB79D7
S31500004F30DBB223F05C03DAB23B681B7803F05C0358
S31500004F40DBB21343DAB27B68DA7100BF0C37BD46B9
S31500004F505DF8047B704790B58BB000AFF860B96020
S31500004F601346FB71FB689B6A7B627B6A002B03D14D
S31500004F7007F114037B6205E07B6A07F114040FCB8B
S31500004F8084E80F00FB68DB691B781A467B6A1A60A7
S31500004F907B6ABA689A607B6AFA791A71FB68DA6A80
S31500004FA07B6ADA60FB685B6A786A9847FB689B6A8B
S31500004FB0002B07D0FB689B6A1C4607F114030FCB36
S31500004FC084E80F0000BF2C37BD4690BD80B584B085
S31500004FD000AFFFF7D4FA0346FB7397F90F30184674
S31500004FE0FFF71EFB97F90F301846FFF7CDFBB860A9
S31500004FF0BB68DB691B69002B30D1BB681B69002BC2
S315000050002CD0BB689B7803F00303DBB2022B0BD1D9
S31500005010BB68DB681B88BA68126A6FEAC3536FEA1B
S31500005020D3539BB2D38105E0BB68DA68BB681B6AC1
S315000050301278DA70BB681B69BA689278C2F301020B
S31500005040D2B29A1ABB681A61BB68DB68BA689278F2
S31500005050C2F30102D2B21A44BB68DA60BB681B69AC
S31500005060002B1BD1BB681B6A9B78FB71FB7943F055
S315000050700403FB71FB7903F07F03FB71BB681B6ABA
S31500005080FA799A70BB680022DA60BB685B6A002B0B
S3150000509004D080220021B868FFF75DFF00BF1037FB
S315000050A0BD4680BD80B584B000AFFFF768FA034601
S315000050B0FB7397F90F301846FFF7B2FA97F90F30DE
S315000050C01846FFF761FBB860BB689B7803F00303E3
S315000050D0DBB2022B07D1BB681B6A1B8A9BB2C3F3E8
S315000050E008037B6004E0BB681B6A5B79DBB27B600C
S315000050F0BB689B69002B0AD1BB685B6A002B33D067
S315000051007B6804221946B868FFF725FF2CE0BB68C8
S315000051105869BB689B78C3F30103DBB21A463B1D93
S31500005120194602F0FFF8BB685B69BA689278C2F369
S315000051300102D2B21A44BB685A61BB689B69BA685D
S315000051409278C2F30102D2B29A1ABB689A61BB681E
S315000051509B69002B08D1BB685B6A002B04D0012237
S315000051600021B868FFF7F7FE00BF1037BD4680BDC7
S3150000517080B582B000AFFFF702FA0346FB7197F9DC
S3150000518007301846FFF700FB38603B681B6A9B78C0
S31500005190DAB23B681B6A02F07B02D2B29A703868B8
S315000051A0FFF7D2FD3B685B6A002B04D00222002188
S315000051B03868FFF7D0FE97F907301846FFF730FA40
S315000051C000BF0837BD4680BD80B584B000AFFFF78D
S315000051D0D6F90346BB7297F90A301846FFF7D4FA98
S315000051E078600023FB607B689B7803F00303DBB2E7
S315000051F0022B07D17B681B6A1B8A9BB2C3F3080389
S31500005200FB6004E07B681B6A5B79DBB2FB607B6852
S315000052101B6A1B79DBB203F03803FB72FB7A03F0DF
S315000052201003002B0BD07B681B6A1B7FC3F30003A4
S31500005230DBB2002B03D1FB7A43F04003FB727B68A1
S315000052401B6A1B79DAB27B681B6A22F03802D2B27B
S315000052501A717868FFF778FD7B685B6A002B05D0CA
S31500005260FB7A1A46F9687868FFF775FE97F90A30EF
S315000052701846FFF7D5F900BF1037BD4680BDFFFFC2
S3150000528080B485B000AF0023FB60EFF310837B6032
S315000052907B68FB600123BB60BB6883F3108800BF9B
S315000052A00D4B1B68002B05D10C4B0022DA700B4B03
S315000052B04022DA70084B1B680133074A1360FB680B
S315000052C03B603B6883F3108800BF00BF1437BD46C0
S315000052D05DF8047B704700BF8010FE1F000D044080
S315000052E080B485B000AF0023FB60EFF310837B60D2
S315000052F07B68FB600123BB60BB6883F3108800BF3B
S315000053000F4B1B68002B04D00D4B1B68013B0C4A4E
S3150000531013600B4B1B68002B05D10A4B0022DA7079
S31500005320084B8022DA70FB683B603B6883F3108889
S3150000533000BF00BF1437BD465DF8047B704700BF51
S315000053408010FE1F000D044080B584B000AF786069
S3150000535039607B68FB60FB68044A1A60386800F0B5
S315000053603EF8002318461037BD4680BD54524F50B4
S3150000537080B487B000AF78600B467B8013467B70A5
S315000053800023FB820023BB827B8823F0FF037B8202
S315000053907B88DBB23B823B8A012202FA03F3FB8164
S315000053A07B78002B02D1FB89BB8201E0FB89FB8263
S315000053B07B8A1B0A9BB2DBB25B0103F1804303F5D8
S315000053C08023BB60BB8A1A04FB8A1A43BB689A60B7
S315000053D0002318461C37BD465DF8047B704780B530
S315000053E084B000AF7860786800F060F87B68BB60D6
S315000053F0FFF746FF0023FB8111E0BB685A68FB8973
S31500005400DB0013449888BB685A68FB89DB001344A9
S315000054101B68194600F00EF8FB890133FB81BB6857
S315000054201B88FA899A42E8D3FFF75AFF00BF103764
S31500005430BD4680BD80B483B000AF03463960FB80B3
S315000054403B6803F48033002B1CD01749FB881B0AEA
S315000054509BB21A46FB88DBB212011A4451F822307D
S315000054606FF3104341F822300F48FB881B0A9BB2AA
S315000054701946FB88DBB23A6822F4803209010B44F4
S3150000548040F823200849FB881B0A9BB21A46FB8872
S31500005490DBB2120113443A6841F8232000BF0C37EF
S315000054A0BD465DF8047B70470008044080B586B0B1
S315000054B000AF786000237B619FE000233B6195E0AD
S315000054C07B685A687B69DB0013449A8851493B69BB
S315000054D031F813309A4240F086807B685A687B69BF
S315000054E0DB0013441B6803F0F853FB60FB68B3F161
S315000054F0807F03D0FB68B3F1106F39D1464B93F828
S31500005500BB34DAB201213B6901FA03F3DBB2134083
S31500005510DBB2002B13D1012001F07CFC3E4B93F84B
S31500005520BB34DAB201213B6901FA03F3DBB23A4933
S315000055301343DBB281F8BB34012001F01BFC374A70
S315000055403B69203312F81330C3F3C013DBB2002BD0
S3150000555049D132493B6903F1200211F8123043F078
S31500005560800301F812300121C82001F0EBFA3AE07D
S31500005570294B93F8BB34DAB201213B6901FA03F3F4
S31500005580DBB21340DBB2002B15D0012001F042FC48
S31500005590214B93F8BB34DAB201213B6901FA03F3DC
S315000055A0DBB2DB43DBB21C491340DBB281F8BB3410
S315000055B0012001F0DFFB194A3B69203312F8133052
S315000055C0C3F3C013DBB2002B0DD014493B6903F1C2
S315000055D0200211F812306FF3C71301F812300121BF
S315000055E0C82001F0AFFA3B6901333B613B69022BEE
S315000055F07FF666AF7B6901337B617B681B881A4641
S315000056007B699342FFF459AF00BF00BF1837BD4610
S3150000561080BD00BFCC7D000000E00140004004409A
S3150000562080B483B000AFEFF303837B607B683B609D
S315000056303B88C3F308039BB2DBB2103BDBB25BB221
S3150000564018460C37BD465DF8047B704780B483B0BE
S3150000565000AF03463960FB7197F9073004493A6891
S3150000566041F8232000BF0C37BD465DF8047B704728
S315000056708410FE1F80B483B000AF0346FB710B4954
S3150000568097F9073003F1C00251F822306FF3104347
S3150000569041F82230054A97F90730C03352F82330D3
S315000056A000BF0C37BD465DF8047B704700600040C4
S315000056B080B584B000AF0346FB7197F907301846F2
S315000056C0FFF7D8FFBFF35F8F00BF97F90730FB6086
S315000056D0FB6803F01F02074997F907305B090120B1
S315000056E000FA02F2603341F8232000BF1037BD46AE
S315000056F080BD00BF00E100E080B584B000AF034686
S31500005700B9607A60FB73BB68DAB2094997F90F3062
S315000057101201D2B20B4483F8002397F90F3079684F
S315000057201846FFF793FF00BF1037BD4680BD00BF88
S3150000573000E100E080B485B000AF0346FB7197F945
S315000057400730FB60FB6803F01F020749FB685B0933
S31500005750012000FA02F241F8232000BF1437BD46AB
S315000057605DF8047B704700BF00E100E080B582B0C1
S3150000577000AF0346FB7197F907301846FFF798FF0D
S3150000578097F907301846FFF7D5FF00BF0837BD4623
S3150000579080BD80B584B000AF0346B9607A60FB7304
S315000057A097F90F307A68B9681846FFF7A5FF97F999
S315000057B00F301846FFF7DAFF00BF1037BD4680BD31
S315000057C080B483B000AF0346FB7197F90730044AF3
S315000057D052F8233018460C37BD465DF8047B7047F7
S315000057E08410FE1F80B584B000AF786039607B6896
S315000057F0FB603B681B7C1A46012303FA02F2FB6836
S31500005800DA603968F86800F037F83968F86800F047
